:1005B0002F2D2D2D2D2D2D2D2D2D2D2D2D2D2D2D69
:1005C0002D2D2D2D2D2D2D2D2D2D2D2D2D2F0A00A9
:1005D00054696D65203D202575203A202575203A07
:1005E0002025750A0044617465203D202575202F63
:1005F000202575202F202575200A0000000000000E
:020600000000F8
:090703007F0512070CD2807F056E
:07070C00EF60031F80FA22D9
:0C073200EF4E6007EF1F70F81E80F522EC
:1006B600C2817F0512070CC280A281308001B3403F
:0406C6000122D32218
:1006F100C281120703D281A281308001B34001225D
:02070100D32201
:02064B00AE07F8
:10064D00E4FDEE30E704D2818002C281EE25E0FEAA
:10065D00120703C2800DBD08E97F0512070C20812A
:0C066D00FDA2819200120708C280A200CA
:01067900225E
:04060200C200D2015F
:10060600E4FD12070830010E308105430601800023
:10061600EE25E0FE800C3081054306808000EEC3A7
:1006260013FEC2807F0512070C0DBD08D5300004ED
:10063600D2818002C281120708C2807F0512070C90
:04064600D281AF06A8
:01064A00228D
:10071300759850758DFD438920D28ED299D2AF2220
:1006A100EF75F00A84C454F0FEEF75F00A84E5F0AA
:0506B1004E25E0FF22D0
:1006CA00EFC313FE54F0C4540F75F00AA4FDEE54A0
:0406DA000F2DFF22BF
:1006DE00EF75F00A84C454F0FEEF75F00A84EE252F
:0306EE00F0FF22F8
:0F072300EFC4540F75F00AA4FEEF540F2EFF22FF
:1004E30078227C007D007BFF7A0579FB7E007F0705
:1004F30012042F1207131206B67FD012064BE4FF25
:1005030012064B1206F11206B67FD012064BE4FF19
:1005130012064B1206F11206B67FD112064B1206D3
:10052300021206CA8F221206021206CA8F2312066D
:10053300021206CA8F241206021206CA8F25120659
:10054300021206CA8F261206021206CA8F27D2008B
:10055300D2011206061206CA8F281206F17BFF7A11
:100563000579B01200657BFF7A0579D0752D00857A
:10057300242E752F00852330753100852232120019
:10058300657BFF7A0579E5752D0085262E752F008D
:100593008527307531008528321200657F507EC370
:0D05A3001207327F507EC312073202050995
:0300000002073EB6
:0C073E00787FE4F6D8FD75813D0204E3ED
:10035F00E709F608DFFA8046E709F208DFFA803E80
:10036F0088828C83E709F0A3DFFA8032E309F6086D
:10037F00DFFA8078E309F208DFFA807088828C83D5
:10038F00E309F0A3DFFA806489828A83E0A3F60889
:10039F00DFFA805889828A83E0A3F208DFFA804C63
:1003AF0080D280FA80C680D4806980F2803380103A
:1003BF0080A680EA809A80A880DA80E280CA8033A3
:1003CF0089828A83ECFAE493A3C8C582C8CCC5831B
:1003DF00CCF0A3C8C582C8CCC583CCDFE9DEE780EB
:1003EF000D89828A83E493A3F608DFF9ECFAA9F06A
:1003FF00EDFB2289828A83ECFAE0A3C8C582C8CCC0
:10040F00C583CCF0A3C8C582C8CCC583CCDFEADED8
:10041F00E880DB89828A83E493A3F208DFF980CC3A
:10042F0088F0EF60010E4E60C388F0ED2402B40433
:10043F000050B9F582EB2402B4040050AF232345DA
:06044F0082239003AF734D
:10000300E539242DF8E6053922782A300702782DC0
:10001300E475F0011204AD0204552000EB7F2ED2EB
:10002300008018EF540F2490D43440D4FF30040BD5
:10003300EF24BFB41A0050032461FFE53A600215B0
:100043003A053DE53D7002053C30070D782AE4751D
:10005300F0011204ADEF02049B02067A7403D20787
:100063008003E4C207F5398B2A8A2B892CE4F53AFD
:10007300F53CF53DE53A60077F2012003E80F575BB
:100083003BFFC201C200C202C203C205C206C208CC
:1000930012000CFF700D3007057F0012004FAF3DBB
:1000A300AE3C22B4255FC2D5C20412000CFF24D09B
:1000B300B40A00501A75F00A783A30D50508B6FF2D
:1000C3000106C6A426F620D5047002D20380D924E3
:1000D300CFB41A00EF5004C2E5D20402024FD2019A
:1000E30080C6D20080C0D20280BCD2D580BAD205ED
:1000F30080B47F2012003E2002077401B53A00400D
:10010300F1120003FF12003E020077D208D20680EC
:1001130095120003FB120003FA120003F94A4B7015
:100123000679207A037BFF20022EE53A602A7E00BF
:100133008E8275830012046E60060EEE653B70F0CE
:10014300C2D5EBC0E0EAC0E0E9C0E0EE120296D00F
:10015300E0F9D0E0FAD0E0FB120455FF60AAEBC04F
:10016300E0EAC0E0E9C0E012003ED0E02401F9D0AB
:10017300E03400FAD0E0FBE53B0460DCD53BD980FA
:10018300877BFF7A027992D202809C791080027970
:1001930008C206C2088008D2D5790A8004790AC247
:1001A300D5E53B047002F53BE4FAFDFEFF120003C4
:1001B300FC7B08200113120003FD7B1030000A12A0
:1001C3000003FE120003FF7B20EC3382D592D5504F
:1001D30013C3E43000069FFFE49EFEE42001039D69
:1001E300FDE49CFCE4CBF8C201EC700CCFCECDCC8B
:1001F300E824F8F870F38017C3EF33FFEE33FEED16
:1002030033FDEC33FCEB33FB994002FB0FD8E9EBF6
:10021300300105F8D0E0C448B201C0E00AEC4D4E0D
:100223004F78207B0070C2EAB53B0040BCC0E012AF
:100233000298D0F0D0E0200104C4C0E0C4B201C0F1
:10024300F0120027D0F0D5F0EB0200771204BD01C5
:100253001453018E5800E54C00E14201924F019A7C
:0F02630044019A4900FA4301A0550184460184E1
:100272004501844703405000E92D00ED2E01102B6B
:1002820000F123010E2003292A00A94800000108D9
:100292003F3F3F00790AA2D5200314300509B91067
:1002A200020404B9080104A2D52006025001042068
:1002B20002689202B53A005034C0E07F2030031940
:1002C2007F30A20272067205500F1202EFC202C202
:1002D20006C205C2087F30800F300503E9C0E01274
:1002E200003E300503D0E0F9D0E0B53ACC30051736
:1002F2007F30B9100C12003E7F583004077F78809F
:1003020003B9080312003E3002057F2D02003E7F32
:10031200202008F87F2B2006F322920280CF286E3D
:10032200756C6C2900D2011200033001F8C2017809
:100332003A30D50108F60200A92D5043495812005F
:10034200032403B405004001E490033B9312002F01
:0D035200743A12002FD203753A0402018E96
:10045500BB010689828A83E0225002E722BBFE02A5
:09046500E32289828A83E49322D8
:10046E00BB010CE58229F582E5833AF583E0225043
:10047E0006E92582F8E622BBFE06E92582F8E2228D
:0D048E00E58229F582E5833AF583E49322A7
:10049B00BB010689828A83F0225002F722BBFE0140
:0204AB00F3223A
:1004AD00FAE6FB0808E6F925F0F618E6CA3AF62250
:1004BD00D083D082F8E4937012740193700DA3A3CE
:1004CD0093F8740193F5828883E4737402936860E2
:0604DD00EFA3A3A380DFE2
:10067A00EFB40A07740D120685740A309811A89906
:10068A00B8130CC2983098FDA899C298B811F630E0
:07069A0099FDC299F59922B8
:00000001FF
